{
  "contractName": "ROSCA",
  "abi": [
    {
      "inputs": [
        {
          "internalType": "string",
          "name": "_name",
          "type": "string"
        },
        {
          "internalType": "uint256",
          "name": "_amount",
          "type": "uint256"
        },
        {
          "internalType": "uint256",
          "name": "_periodMLengthInTime",
          "type": "uint256"
        },
        {
          "internalType": "uint256",
          "name": "_numberOfPeriods",
          "type": "uint256"
        },
        {
          "internalType": "uint256",
          "name": "_startingDate",
          "type": "uint256"
        }
      ],
      "name": "createTontine",
      "outputs": [],
      "stateMutability": "nonpayable",
      "type": "function"
    },
    {
      "inputs": [
        {
          "internalType": "uint256",
          "name": "_tontineId",
          "type": "uint256"
        }
      ],
      "name": "createGroup",
      "outputs": [],
      "stateMutability": "nonpayable",
      "type": "function"
    },
    {
      "inputs": [
        {
          "internalType": "string",
          "name": "_name",
          "type": "string"
        },
        {
          "internalType": "address",
          "name": "_memberWalletAddress",
          "type": "address"
        }
      ],
      "name": "createMember",
      "outputs": [],
      "stateMutability": "nonpayable",
      "type": "function"
    },
    {
      "inputs": [
        {
          "internalType": "uint256",
          "name": "_memberId",
          "type": "uint256"
        },
        {
          "internalType": "uint256",
          "name": "_groupId",
          "type": "uint256"
        }
      ],
      "name": "addMemberToGroup",
      "outputs": [],
      "stateMutability": "nonpayable",
      "type": "function"
    },
    {
      "inputs": [
        {
          "internalType": "uint256",
          "name": "_tontineId",
          "type": "uint256"
        },
        {
          "internalType": "uint256",
          "name": "_currentPeriod",
          "type": "uint256"
        },
        {
          "internalType": "uint256",
          "name": "_endDate",
          "type": "uint256"
        }
      ],
      "name": "createCotisation",
      "outputs": [],
      "stateMutability": "nonpayable",
      "type": "function"
    },
    {
      "inputs": [
        {
          "internalType": "uint256",
          "name": "_memberId",
          "type": "uint256"
        },
        {
          "internalType": "uint256",
          "name": "_cotisationId",
          "type": "uint256"
        }
      ],
      "name": "createMemberCotisation",
      "outputs": [],
      "stateMutability": "nonpayable",
      "type": "function"
    },
    {
      "inputs": [
        {
          "internalType": "uint256",
          "name": "_memberCotisationId",
          "type": "uint256"
        },
        {
          "internalType": "uint256",
          "name": "_amount",
          "type": "uint256"
        }
      ],
      "name": "createPayment",
      "outputs": [],
      "stateMutability": "nonpayable",
      "type": "function"
    },
    {
      "inputs": [
        {
          "internalType": "uint256",
          "name": "_memberCotisationId",
          "type": "uint256"
        }
      ],
      "name": "getAmount",
      "outputs": [
        {
          "internalType": "uint256",
          "name": "",
          "type": "uint256"
        }
      ],
      "stateMutability": "view",
      "type": "function",
      "constant": true
    },
    {
      "inputs": [
        {
          "internalType": "uint256",
          "name": "_tontineId",
          "type": "uint256"
        }
      ],
      "name": "listGroupOfTontine",
      "outputs": [
        {
          "internalType": "uint256",
          "name": "",
          "type": "uint256"
        },
        {
          "internalType": "uint256",
          "name": "",
          "type": "uint256"
        },
        {
          "internalType": "uint256",
          "name": "",
          "type": "uint256"
        },
        {
          "internalType": "uint256",
          "name": "",
          "type": "uint256"
        }
      ],
      "stateMutability": "view",
      "type": "function",
      "constant": true
    },
    {
      "inputs": [
        {
          "internalType": "uint256",
          "name": "_tontineId",
          "type": "uint256"
        }
      ],
      "name": "listMembersOfTontine",
      "outputs": [
        {
          "internalType": "uint256",
          "name": "",
          "type": "uint256"
        }
      ],
      "stateMutability": "view",
      "type": "function",
      "constant": true
    },
    {
      "inputs": [
        {
          "internalType": "uint256",
          "name": "_memberId",
          "type": "uint256"
        }
      ],
      "name": "showMember",
      "outputs": [
        {
          "components": [
            {
              "internalType": "uint256",
              "name": "memberId",
              "type": "uint256"
            },
            {
              "internalType": "string",
              "name": "name",
              "type": "string"
            },
            {
              "internalType": "address payable",
              "name": "memberWalletAddress",
              "type": "address"
            }
          ],
          "internalType": "struct ROSCA.Member",
          "name": "",
          "type": "tuple"
        }
      ],
      "stateMutability": "view",
      "type": "function",
      "constant": true
    },
    {
      "inputs": [
        {
          "internalType": "uint256",
          "name": "_memberId",
          "type": "uint256"
        },
        {
          "internalType": "uint256",
          "name": "_cotisationId",
          "type": "uint256"
        }
      ],
      "name": "hasMemberTotallyContributed",
      "outputs": [
        {
          "internalType": "bool",
          "name": "status",
          "type": "bool"
        }
      ],
      "stateMutability": "view",
      "type": "function",
      "constant": true
    }
  ],
  "bytecode": "0x6080604052600080556000600155600060025560006003556000600455600060055534801561002d57600080fd5b506118938061003d6000396000f3fe608060405234801561001057600080fd5b50600436106100b45760003560e01c80639980ec86116100715780639980ec8614610189578063a6e7ed7a146101b9578063b96bd6de146101d5578063db56d71414610208578063eca9cb1d14610224578063feec91d314610240576100b4565b80630f5b60ca146100b95780635e083361146100e957806365bf60e0146101195780636b42cf4d146101355780637498966e146101515780638fc522a31461016d575b600080fd5b6100d360048036038101906100ce9190610e70565b610270565b6040516100e09190610ecb565b60405180910390f35b61010360048036038101906100fe9190610ee6565b6103ca565b6040516101109190610f22565b60405180910390f35b610133600480360381019061012e9190610ee6565b610402565b005b61014f600480360381019061014a91906110e1565b61051a565b005b61016b6004803603810190610166919061113d565b610600565b005b61018760048036038101906101829190611190565b6106be565b005b6101a3600480360381019061019e9190610ee6565b610822565b6040516101b09190610f22565b60405180910390f35b6101d360048036038101906101ce9190610e70565b61086e565b005b6101ef60048036038101906101ea9190610ee6565b610a09565b6040516101ff9493929190611227565b60405180910390f35b610222600480360381019061021d9190610e70565b610a67565b005b61023e60048036038101906102399190610e70565b610b28565b005b61025a60048036038101906102559190610ee6565b610b70565b604051610267919061136b565b60405180910390f35b600080600190505b60055481116103c35761028a84610c8f565b60405160200161029a91906113c9565b604051602081830303815290604052805190602001206102cf600a600084815260200190815260200160002060010154610c8f565b6040516020016102df91906113c9565b60405160208183030381529060405280519060200120148015610373575061030683610c8f565b60405160200161031691906113c9565b6040516020818303038152906040528051906020012061034b600a600084815260200190815260200160002060020154610c8f565b60405160200161035b91906113c9565b60405160208183030381529060405280519060200120145b80156103a6575060011515600a600083815260200190815260200160002060030160009054906101000a900460ff161515145b156103b057600191505b80806103bb9061140f565b915050610278565b5092915050565b600080600c60008481526020019081526020016000205490506007600082815260200190815260200160002060020154915050919050565b60405180606001604052806001805461041b9190611457565b81526020018281526020016001815250600760006001805461043d9190611457565b81526020019081526020016000206000820151816000015560208201518160010155604082015181600201559050506001805461047a9190611457565b600c600083815260200190815260200160002081905550600160008154809291906104a49061140f565b91905055506104e86040518060400160405280600581526020017f61646d696e0000000000000000000000000000000000000000000000000000008152503361051a565b61051760086000600254815260200190815260200160002060000154600180546105129190611457565b610b28565b50565b604051806060016040528060016002546105349190611457565b81526020018381526020018273ffffffffffffffffffffffffffffffffffffffff1681525060086000600160025461056c9190611457565b81526020019081526020016000206000820151816000015560208201518160010190816105999190611697565b5060408201518160020160006101000a81548173ffffffffffffffffffffffffffffffffffffffff021916908373ffffffffffffffffffffffffffffffffffffffff160217905550905050600260008154809291906105f79061140f565b91905055505050565b6040518060800160405280600160035461061a9190611457565b8152602001848152602001838152602001828152506009600060016003546106429190611457565b81526020019081526020016000206000820151816000015560208201518160010155604082015181600201556060820151816003015590505082600e6000600160035461068f9190611457565b815260200190815260200160002081905550600360008154809291906106b49061140f565b9190505550505050565b6040518060e001604052803373ffffffffffffffffffffffffffffffffffffffff16815260200160016000546106f49190611457565b8152602001868152602001858152602001848152602001838152602001828152506006600060016000546107289190611457565b815260200190815260200160002060008201518160000160006101000a81548173ffffffffffffffffffffffffffffffffffffffff021916908373ffffffffffffffffffffffffffffffffffffffff16021790555060208201518160010155604082015181600201908161079c9190611697565b50606082015181600301556080820151816004015560a0820151816005015560c082015181600601559050506107df60016000546107da9190611457565b610402565b61080460016000546107f19190611457565b600183426107ff9190611457565b610600565b6000808154809291906108169061140f565b91905055505050505050565b60006006600060096000600a6000878152602001908152602001600020600201548152602001908152602001600020600101548152602001908152602001600020600301549050919050565b604051806080016040528060016004546108889190611457565b815260200183815260200182815260200142815250600b600060016004546108b09190611457565b81526020019081526020016000206000820151816000015560208201518160010155604082015181600201556060820151816003015590505080600a6000848152602001908152602001600020600401600082825461090f9190611457565b9250508190555061092761092283610822565b610c8f565b60405160200161093791906113c9565b6040516020818303038152906040528051906020012061096c600a600085815260200190815260200160002060040154610c8f565b60405160200161097c91906113c9565b60405160208183030381529060405280519060200120036109c7576001600a600084815260200190815260200160002060030160006101000a81548160ff0219169083151502179055505b81600f600060016004546109db9190611457565b81526020019081526020016000208190555060046000815480929190610a009061140f565b91905055505050565b6000806000806000600c60008781526020019081526020016000205490506007600082815260200190815260200160002060010154600760008381526020019081526020016000206002015487839450945094509450509193509193565b6040518060a001604052806001600554610a819190611457565b81526020018381526020018281526020016000151581526020016000815250600a60006001600554610ab39190611457565b815260200190815260200160002060008201518160000155602082015181600101556040820151816002015560608201518160030160006101000a81548160ff0219169083151502179055506080820151816004015590505060056000815480929190610b1f9061140f565b91905055505050565b80600d600084815260200190815260200160002081905550600760008281526020019081526020016000206002016000815480929190610b679061140f565b91905055505050565b610b78610def565b6008600083815260200190815260200160002060405180606001604052908160008201548152602001600182018054610bb0906114ba565b80601f0160208091040260200160405190810160405280929190818152602001828054610bdc906114ba565b8015610c295780601f10610bfe57610100808354040283529160200191610c29565b820191906000526020600020905b815481529060010190602001808311610c0c57829003601f168201915b505050505081526020016002820160009054906101000a900473ffffffffffffffffffffffffffffffffffffffff1673ffffffffffffffffffffffffffffffffffffffff1673ffffffffffffffffffffffffffffffffffffffff16815250509050919050565b606060008203610cd6576040518060400160405280600181526020017f30000000000000000000000000000000000000000000000000000000000000008152509050610dea565b600082905060005b60008214610d08578080610cf19061140f565b915050600a82610d019190611798565b9150610cde565b60008167ffffffffffffffff811115610d2457610d23610f58565b5b6040519080825280601f01601f191660200182016040528015610d565781602001600182028036833780820191505090505b5090505b60008514610de357600182610d6f91906117c9565b9150600a85610d7e91906117fd565b6030610d8a9190611457565b60f81b818381518110610da057610d9f61182e565b5b60200101907effffffffffffffffffffffffffffffffffffffffffffffffffffffffffffff1916908160001a905350600a85610ddc9190611798565b9450610d5a565b8093505050505b919050565b60405180606001604052806000815260200160608152602001600073ffffffffffffffffffffffffffffffffffffffff1681525090565b6000604051905090565b600080fd5b600080fd5b6000819050919050565b610e4d81610e3a565b8114610e5857600080fd5b50565b600081359050610e6a81610e44565b92915050565b60008060408385031215610e8757610e86610e30565b5b6000610e9585828601610e5b565b9250506020610ea685828601610e5b565b9150509250929050565b60008115159050919050565b610ec581610eb0565b82525050565b6000602082019050610ee06000830184610ebc565b92915050565b600060208284031215610efc57610efb610e30565b5b6000610f0a84828501610e5b565b91505092915050565b610f1c81610e3a565b82525050565b6000602082019050610f376000830184610f13565b92915050565b600080fd5b600080fd5b6000601f19601f8301169050919050565b7f4e487b7100000000000000000000000000000000000000000000000000000000600052604160045260246000fd5b610f9082610f47565b810181811067ffffffffffffffff82111715610faf57610fae610f58565b5b80604052505050565b6000610fc2610e26565b9050610fce8282610f87565b919050565b600067ffffffffffffffff821115610fee57610fed610f58565b5b610ff782610f47565b9050602081019050919050565b82818337600083830152505050565b600061102661102184610fd3565b610fb8565b90508281526020810184848401111561104257611041610f42565b5b61104d848285611004565b509392505050565b600082601f83011261106a57611069610f3d565b5b813561107a848260208601611013565b91505092915050565b600073ffffffffffffffffffffffffffffffffffffffff82169050919050565b60006110ae82611083565b9050919050565b6110be816110a3565b81146110c957600080fd5b50565b6000813590506110db816110b5565b92915050565b600080604083850312156110f8576110f7610e30565b5b600083013567ffffffffffffffff81111561111657611115610e35565b5b61112285828601611055565b9250506020611133858286016110cc565b9150509250929050565b60008060006060848603121561115657611155610e30565b5b600061116486828701610e5b565b935050602061117586828701610e5b565b925050604061118686828701610e5b565b9150509250925092565b600080600080600060a086880312156111ac576111ab610e30565b5b600086013567ffffffffffffffff8111156111ca576111c9610e35565b5b6111d688828901611055565b95505060206111e788828901610e5b565b94505060406111f888828901610e5b565b935050606061120988828901610e5b565b925050608061121a88828901610e5b565b9150509295509295909350565b600060808201905061123c6000830187610f13565b6112496020830186610f13565b6112566040830185610f13565b6112636060830184610f13565b95945050505050565b61127581610e3a565b82525050565b600081519050919050565b600082825260208201905092915050565b60005b838110156112b557808201518184015260208101905061129a565b60008484015250505050565b60006112cc8261127b565b6112d68185611286565b93506112e6818560208601611297565b6112ef81610f47565b840191505092915050565b600061130582611083565b9050919050565b611315816112fa565b82525050565b6000606083016000830151611333600086018261126c565b506020830151848203602086015261134b82826112c1565b9150506040830151611360604086018261130c565b508091505092915050565b60006020820190508181036000830152611385818461131b565b905092915050565b600081905092915050565b60006113a38261127b565b6113ad818561138d565b93506113bd818560208601611297565b80840191505092915050565b60006113d58284611398565b915081905092915050565b7f4e487b7100000000000000000000000000000000000000000000000000000000600052601160045260246000fd5b600061141a82610e3a565b91507fffffffffffffffffffffffffffffffffffffffffffffffffffffffffffffffff820361144c5761144b6113e0565b5b600182019050919050565b600061146282610e3a565b915061146d83610e3a565b9250828201905080821115611485576114846113e0565b5b92915050565b7f4e487b7100000000000000000000000000000000000000000000000000000000600052602260045260246000fd5b600060028204905060018216806114d257607f821691505b6020821081036114e5576114e461148b565b5b50919050565b60008190508160005260206000209050919050565b60006020601f8301049050919050565b600082821b905092915050565b60006008830261154d7fffffffffffffffffffffffffffffffffffffffffffffffffffffffffffffffff82611510565b6115578683611510565b95508019841693508086168417925050509392505050565b6000819050919050565b600061159461158f61158a84610e3a565b61156f565b610e3a565b9050919050565b6000819050919050565b6115ae83611579565b6115c26115ba8261159b565b84845461151d565b825550505050565b600090565b6115d76115ca565b6115e28184846115a5565b505050565b5b81811015611606576115fb6000826115cf565b6001810190506115e8565b5050565b601f82111561164b5761161c816114eb565b61162584611500565b81016020851015611634578190505b61164861164085611500565b8301826115e7565b50505b505050565b600082821c905092915050565b600061166e60001984600802611650565b1980831691505092915050565b6000611687838361165d565b9150826002028217905092915050565b6116a08261127b565b67ffffffffffffffff8111156116b9576116b8610f58565b5b6116c382546114ba565b6116ce82828561160a565b600060209050601f83116001811461170157600084156116ef578287015190505b6116f9858261167b565b865550611761565b601f19841661170f866114eb565b60005b8281101561173757848901518255600182019150602085019450602081019050611712565b868310156117545784890151611750601f89168261165d565b8355505b6001600288020188555050505b505050505050565b7f4e487b7100000000000000000000000000000000000000000000000000000000600052601260045260246000fd5b60006117a382610e3a565b91506117ae83610e3a565b9250826117be576117bd611769565b5b828204905092915050565b60006117d482610e3a565b91506117df83610e3a565b92508282039050818111156117f7576117f66113e0565b5b92915050565b600061180882610e3a565b915061181383610e3a565b92508261182357611822611769565b5b828206905092915050565b7f4e487b7100000000000000000000000000000000000000000000000000000000600052603260045260246000fdfea264697066735822122048b91d5812366591b76a8313550474e9b0290c47e74b499ee3e826522219d57b64736f6c63430008110033",
  "immutableReferences": {},
  "source": "// SPDX-License-Identifier: GPL-3.0\n\nimport \"@openzeppelin/contracts/utils/Strings.sol\";\n\npragma solidity >=0.7.0 <0.9.0;\n\ncontract ROSCA {\n\n    uint numberOfTontines = 0;\n    uint numberOfGroups = 0;\n    uint numberOfMembers = 0;\n    uint numberOfCotisations = 0;\n    uint numberOfPayments = 0;\n    uint numberOfMemberCotisations = 0;\n\n    //defining the needed structs \n    struct Tontine {\n        address payable owner;\n        uint tontineId;\n        string name;\n        uint amount;\n        uint periodMLengthInTime; \n        uint numberOfPeriods;\n        uint startingDate;\n    }\n\n    struct Group {\n        uint groupId;\n        uint tontineId;\n        uint numberOfGroupMembers;\n    }\n\n    struct Member {\n        uint memberId;\n        string name;\n        address payable memberWalletAddress;\n    }\n\n    struct Cotisation {\n        uint cotisationId; \n        uint tontineId;\n        uint currentPeriod;\n        uint periodEndDate;\n\n    } \n\n    struct MemberCotisation {\n        uint memberCotisationId;\n        uint memberId;\n        uint cotisationId;\n        bool memberHasFullyContributed;\n        uint currentPaidAmount;\n    }\n\n    struct Payment {\n        uint paymentId;\n        uint memberCotisationId;\n        uint amount;\n        uint paymentDateAndTime;\n    }\n\n    //mapping to track the differents structs\n    mapping (uint => Tontine ) internal tontines;\n    mapping (uint => Group) internal groups;\n    mapping (uint => Member) internal members;\n    mapping (uint => Cotisation) internal cotisations;\n    mapping (uint => MemberCotisation) internal memberCotisations;\n    mapping (uint => Payment) internal payments;\n\n    //mapping between the differents structs\n    mapping (uint => uint ) internal tontineGroup;\n    mapping (uint => uint) groupMembers;\n    mapping (uint => uint) tontineCotisations;\n    mapping (uint => uint) paymentForMemberCotisations;\n    \n\n    //creating a tontine with its name, amount to pay each period and the amount of time in a cotisation period\n    function createTontine(string memory _name, uint _amount, uint _periodMLengthInTime, uint _numberOfPeriods, uint _startingDate) public {\n\n        tontines[numberOfTontines+1] = Tontine (\n            payable(msg.sender),\n            numberOfTontines+1,\n            _name,\n            _amount,\n            _periodMLengthInTime,\n            _numberOfPeriods,\n            _startingDate\n        );\n        \n        createGroup(numberOfTontines+1);\n        createCotisation(numberOfTontines+1,1,(block.timestamp) + _startingDate);\n        numberOfTontines++;\n        \n    }\n\n\n    /** creating a group of members for a specific tontine\n    *   the creator of the group is added as the first member\n    */\n    function createGroup(uint _tontineId) public {\n        \n        groups[numberOfGroups+1] = Group(\n            numberOfGroups+1,\n            _tontineId,\n            1\n        );\n\n        tontineGroup[_tontineId] = numberOfGroups+1;\n        numberOfGroups++;\n\n        //After creating a group, we shall add him the creator (owner of tthe tontine) as a group member\n        createMember(\"admin\", payable(msg.sender));\n        addMemberToGroup(members[numberOfMembers].memberId, numberOfGroups+1);\n    }\n\n    // now we create members only using their name and wallet address\n    function createMember(string memory _name, address _memberWalletAddress) public {\n        members[numberOfMembers+1] = Member(\n            numberOfMembers+1,\n            _name,\n            payable(_memberWalletAddress)\n        );\n\n        numberOfMembers++;\n    }\n\n    // Adding a member to a group directly integrate him to this groub's binded tontine\n    function addMemberToGroup (uint _memberId, uint _groupId) public {\n        groupMembers[_memberId] = _groupId;\n        groups[_groupId].numberOfGroupMembers++;\n    }\n\n    // a tontine has many period of contribution and each one is a cotisation\n    function createCotisation(uint _tontineId, uint _currentPeriod, uint _endDate) public {\n        cotisations[numberOfCotisations+1] = Cotisation(\n            numberOfCotisations+1,\n            _tontineId,\n            _currentPeriod,\n            _endDate\n        );\n\n        tontineCotisations[numberOfCotisations+1] = _tontineId;\n        numberOfCotisations++;\n    }\n    \n    // we shall bind the member to a specific cotisation by current amount he paid\n    function createMemberCotisation(uint _memberId, uint _cotisationId) public {\n        memberCotisations[numberOfMemberCotisations+1] = MemberCotisation(\n            numberOfMemberCotisations+1,\n            _memberId,\n            _cotisationId,\n            false,\n            0\n        );\n\n        numberOfMemberCotisations++;\n    }\n\n    /** because a member must be able to contribute via multiples little payments,\n     *  we bind each payment to the member's cotisation and we increase the current paid amount\n     *  We think the payment table isn't necessary, we can just match the amount to the \"member cotisation\"\n     *  and consider it as payments\n     */\n    function createPayment(uint _memberCotisationId, uint _amount) public {\n        payments[numberOfPayments+1] = Payment(\n            numberOfPayments+1,\n            _memberCotisationId,\n            _amount,\n            block.timestamp\n        );\n\n        memberCotisations[_memberCotisationId].currentPaidAmount += _amount;\n        if (keccak256(abi.encodePacked(Strings.toString(memberCotisations[_memberCotisationId].currentPaidAmount)))  == keccak256(abi.encodePacked(Strings.toString(getAmount(_memberCotisationId))))) {\n            memberCotisations[_memberCotisationId].memberHasFullyContributed = true;\n        }\n        paymentForMemberCotisations[numberOfPayments+1] = _memberCotisationId;\n        numberOfPayments++;\n    }\n\n    // a specific function to get the tontine's contribution amount knowing the member cotisation identifier\n    function getAmount(uint _memberCotisationId) public view returns (uint) {\n        return tontines[cotisations[memberCotisations[_memberCotisationId].cotisationId].tontineId].amount;\n    }\n\n    /**\n     * Functions to read datas from the Truffle Local Network\n     * \n     */\n\n\n    // a test function designed to show some informations about a tontine\n    function listGroupOfTontine(uint _tontineId) public view returns (uint, uint, uint, uint) {\n        uint groupId = tontineGroup[_tontineId];\n        return (\n            groups[groupId].tontineId,\n            groups[groupId].numberOfGroupMembers,\n            _tontineId,\n            groupId\n        );\n    }\n    \n    \n    //we will modify this function to show all members for a specific tontine\n    function listMembersOfTontine(uint _tontineId) public view returns (uint) {\n        uint groupId = tontineGroup[_tontineId];\n        return groups[groupId].numberOfGroupMembers;\n    }\n\n    // showing a specific member\n    function showMember(uint _memberId) public view returns (Member memory){\n        return members[_memberId];\n    }\n\n    function hasMemberTotallyContributed(uint _memberId, uint _cotisationId) public view returns (bool status){\n        status = false;\n        for(uint i = 1; i <= numberOfMemberCotisations; i++) {\n            if(keccak256(abi.encodePacked(Strings.toString(memberCotisations[i].memberId))) == keccak256(abi.encodePacked(Strings.toString(_memberId))) && keccak256(abi.encodePacked(Strings.toString(memberCotisations[i].cotisationId))) == keccak256(abi.encodePacked(Strings.toString(_cotisationId))) && memberCotisations[i].memberHasFullyContributed == true){\n                status = true;\n            }\n        }\n        return status;\n    }\n    \n    //Ganache Private key : 0xc46eeb86f1e846d2920cce59a6fad5c4656d5211aa9ed5c10d0f62ac0c8a2c6c\n    \n}\n",
  "sourcePath": "/home/gr33n0w1/Documents/web3projects/TruffleAndGanache/contracts/ROSCA.sol",
  "compiler": {
    "name": "solc",
    "version": "0.8.17+commit.8df45f5f.Emscripten.clang"
  },
  "schemaVersion": "3.4.10",
  "updatedAt": "2022-10-20T17:33:38.053Z",
  "networkType": "ethereum",
  "devdoc": {
    "kind": "dev",
    "methods": {},
    "version": 1
  },
  "userdoc": {
    "kind": "user",
    "methods": {
      "createGroup(uint256)": {
        "notice": "creating a group of members for a specific tontine   the creator of the group is added as the first member"
      },
      "createPayment(uint256,uint256)": {
        "notice": "because a member must be able to contribute via multiples little payments,  we bind each payment to the member's cotisation and we increase the current paid amount  We think the payment table isn't necessary, we can just match the amount to the \"member cotisation\"  and consider it as payments"
      },
      "listGroupOfTontine(uint256)": {
        "notice": "Functions to read datas from the Truffle Local Network "
      }
    },
    "version": 1
  }
}